{
  "address": "0xDc64a140Aa3E981100a9becA4E685f962f0cF6C9",
  "abi": [
    {
      "inputs": [
        {
          "internalType": "address",
          "name": "exampleExternalContractAddress",
          "type": "address"
        }
      ],
      "stateMutability": "nonpayable",
      "type": "constructor"
    },
    {
      "anonymous": false,
      "inputs": [
        {
          "indexed": true,
          "internalType": "address",
          "name": "sender",
          "type": "address"
        },
        {
          "indexed": false,
          "internalType": "uint256",
          "name": "amount",
          "type": "uint256"
        }
      ],
      "name": "Execute",
      "type": "event"
    },
    {
      "anonymous": false,
      "inputs": [
        {
          "indexed": false,
          "internalType": "address",
          "name": "",
          "type": "address"
        },
        {
          "indexed": false,
          "internalType": "uint256",
          "name": "",
          "type": "uint256"
        }
      ],
      "name": "Received",
      "type": "event"
    },
    {
      "anonymous": false,
      "inputs": [
        {
          "indexed": true,
          "internalType": "address",
          "name": "sender",
          "type": "address"
        },
        {
          "indexed": false,
          "internalType": "uint256",
          "name": "amount",
          "type": "uint256"
        }
      ],
      "name": "Stake",
      "type": "event"
    },
    {
      "inputs": [
        {
          "internalType": "address",
          "name": "",
          "type": "address"
        }
      ],
      "name": "balances",
      "outputs": [
        {
          "internalType": "uint256",
          "name": "",
          "type": "uint256"
        }
      ],
      "stateMutability": "view",
      "type": "function"
    },
    {
      "inputs": [],
      "name": "claimDeadline",
      "outputs": [
        {
          "internalType": "uint256",
          "name": "",
          "type": "uint256"
        }
      ],
      "stateMutability": "view",
      "type": "function"
    },
    {
      "inputs": [],
      "name": "claimPeriodLeft",
      "outputs": [
        {
          "internalType": "uint256",
          "name": "claimPeriodLeft",
          "type": "uint256"
        }
      ],
      "stateMutability": "view",
      "type": "function"
    },
    {
      "inputs": [],
      "name": "currentBlock",
      "outputs": [
        {
          "internalType": "uint256",
          "name": "",
          "type": "uint256"
        }
      ],
      "stateMutability": "view",
      "type": "function"
    },
    {
      "inputs": [
        {
          "internalType": "address",
          "name": "",
          "type": "address"
        }
      ],
      "name": "depositTimestamps",
      "outputs": [
        {
          "internalType": "uint256",
          "name": "",
          "type": "uint256"
        }
      ],
      "stateMutability": "view",
      "type": "function"
    },
    {
      "inputs": [],
      "name": "exampleExternalContract",
      "outputs": [
        {
          "internalType": "contract ExampleExternalContract",
          "name": "",
          "type": "address"
        }
      ],
      "stateMutability": "view",
      "type": "function"
    },
    {
      "inputs": [],
      "name": "execute",
      "outputs": [],
      "stateMutability": "nonpayable",
      "type": "function"
    },
    {
      "inputs": [],
      "name": "killTime",
      "outputs": [],
      "stateMutability": "nonpayable",
      "type": "function"
    },
    {
      "inputs": [],
      "name": "rewardRatePerBlock",
      "outputs": [
        {
          "internalType": "uint256",
          "name": "",
          "type": "uint256"
        }
      ],
      "stateMutability": "view",
      "type": "function"
    },
    {
      "inputs": [],
      "name": "stake",
      "outputs": [],
      "stateMutability": "payable",
      "type": "function"
    },
    {
      "inputs": [],
      "name": "withdraw",
      "outputs": [],
      "stateMutability": "nonpayable",
      "type": "function"
    },
    {
      "inputs": [],
      "name": "withdrawalDeadline",
      "outputs": [
        {
          "internalType": "uint256",
          "name": "",
          "type": "uint256"
        }
      ],
      "stateMutability": "view",
      "type": "function"
    },
    {
      "inputs": [],
      "name": "withdrawalTimeLeft",
      "outputs": [
        {
          "internalType": "uint256",
          "name": "withdrawalTimeLeft",
          "type": "uint256"
        }
      ],
      "stateMutability": "view",
      "type": "function"
    },
    {
      "stateMutability": "payable",
      "type": "receive"
    }
  ],
  "transactionHash": "0x138011c9af217ca84ffef6df7abbe21a76d60699fea6667598c6d3abd34707fa",
  "args": [
    "0xCf7Ed3AccA5a467e9e704C703E8D87F634fB0Fc9"
  ],
  "solcInputHash": "63887a5e1191e93e0dba8d9bcb16b2cb",
  "bytecode": "0x608060405261000f4260786100a3565b60035561001d4260f06100a3565b600455600060055534801561003157600080fd5b50604051610b02380380610b0283398101604081905261005091610075565b600080546001600160a01b0319166001600160a01b03929092169190911790556100c7565b600060208284031215610086578081fd5b81516001600160a01b038116811461009c578182fd5b9392505050565b600082198211156100c257634e487b7160e01b81526011600452602481fd5b500190565b610a2c806100d66000396000f3fe6080604052600436106100c65760003560e01c8063614619541161007f578063bcb8e81311610059578063bcb8e8131461022a578063be31069714610240578063e12ed13c14610256578063f78941761461026c57600080fd5b806361461954146101c157806390870492146101d65780639f75f227146101f257600080fd5b8063240be9441461010a57806324a5a2ce1461014a57806327e235e31461015f5780633a4b66f11461018c5780633ba86c44146101965780633ccfd60b146101ac57600080fd5b3661010557604080513381523460208201527f88a5966d370b9919b20f3e2c13ff65706f196a4e32cc2c12bf57088f88525874910160405180910390a1005b600080fd5b34801561011657600080fd5b50610137610125366004610846565b60026020526000908152604090205481565b6040519081526020015b60405180910390f35b34801561015657600080fd5b50610137610281565b34801561016b57600080fd5b5061013761017a366004610846565b60016020526000908152604090205481565b6101946102a5565b005b3480156101a257600080fd5b5061013760045481565b3480156101b857600080fd5b506101946103d4565b3480156101cd57600080fd5b506101946106a4565b3480156101e257600080fd5b5061013767016345785d8a000081565b3480156101fe57600080fd5b50600054610212906001600160a01b031681565b6040516001600160a01b039091168152602001610141565b34801561023657600080fd5b5061019442600555565b34801561024c57600080fd5b5061013760035481565b34801561026257600080fd5b5061013760055481565b34801561027857600080fd5b50610137610827565b600060045442106102925750600090565b426004546102a091906109c9565b905090565b6000806102b0610827565b905081156102e45780156102df5760405162461bcd60e51b81526004016102d69061094e565b60405180910390fd5b610304565b600081116103045760405162461bcd60e51b81526004016102d690610894565b60008061030f610281565b9050811561033a5780156103355760405162461bcd60e51b81526004016102d6906108d6565b61035a565b6000811161035a5760405162461bcd60e51b81526004016102d690610917565b33600090815260016020526040902054610375903490610992565b336000818152600160209081526040808320949094556002905282902042905590517febedb8b3c678666e7f36970bc8f57abf6d8fa2e828c0da91ea5b75bf68ed101a906103c69034815260200190565b60405180910390a250505050565b600160006103e0610827565b9050811561040b5780156104065760405162461bcd60e51b81526004016102d69061094e565b61042b565b6000811161042b5760405162461bcd60e51b81526004016102d690610894565b600080610436610281565b9050811561046157801561045c5760405162461bcd60e51b81526004016102d6906108d6565b610481565b600081116104815760405162461bcd60e51b81526004016102d690610917565b60008060009054906101000a90046001600160a01b03166001600160a01b0316639d9a7fe96040518163ffffffff1660e01b815260040160206040518083038186803b1580156104d057600080fd5b505afa1580156104e4573d6000803e3d6000fd5b505050506040513d601f19601f820116820180604052508101906105089190610874565b905080156105535760405162461bcd60e51b81526020600482015260186024820152775374616b6520616c726561647920636f6d706c657465642160401b60448201526064016102d6565b336000908152600160205260409020546105af5760405162461bcd60e51b815260206004820181905260248201527f596f752068617665206e6f2062616c616e636520746f2077697468647261772160448201526064016102d6565b33600090815260016020908152604080832054600290925282205490919067016345785d8a0000906105e190426109c9565b6105eb91906109aa565b6105f59083610992565b33600081815260016020526040808220829055519293509182919084908381818185875af1925050503d806000811461064a576040519150601f19603f3d011682016040523d82523d6000602084013e61064f565b606091505b5091509150816106995760405162461bcd60e51b815260206004820152601560248201527403bb4ba34323930bbb0b6103330b4b632b2101d141605d1b60448201526064016102d6565b505050505050505050565b600160006106b0610281565b905081156106db5780156106d65760405162461bcd60e51b81526004016102d6906108d6565b6106fb565b600081116106fb5760405162461bcd60e51b81526004016102d690610917565b60008060009054906101000a90046001600160a01b03166001600160a01b0316639d9a7fe96040518163ffffffff1660e01b815260040160206040518083038186803b15801561074a57600080fd5b505afa15801561075e573d6000803e3d6000fd5b505050506040513d601f19601f820116820180604052508101906107829190610874565b905080156107cd5760405162461bcd60e51b81526020600482015260186024820152775374616b6520616c726561647920636f6d706c657465642160401b60448201526064016102d6565b600080546040805163522e117760e01b8152905147936001600160a01b039093169263522e11779247926004808301939282900301818588803b15801561081357600080fd5b505af1158015610699573d6000803e3d6000fd5b600060035442106108385750600090565b426003546102a091906109c9565b600060208284031215610857578081fd5b81356001600160a01b038116811461086d578182fd5b9392505050565b600060208284031215610885578081fd5b8151801515811461086d578182fd5b60208082526022908201527f5769746864726177616c20706572696f6420686173206265656e207265616368604082015261195960f21b606082015260800190565b60208082526021908201527f436c61696d20646561646c696e65206973206e6f7420726561636865642079656040820152601d60fa1b606082015260800190565b6020808252601f908201527f436c61696d20646561646c696e6520686173206265656e207265616368656400604082015260600190565b60208082526024908201527f5769746864726177616c20706572696f64206973206e6f742072656163686564604082015263081e595d60e21b606082015260800190565b600082198211156109a5576109a56109e0565b500190565b60008160001904831182151516156109c4576109c46109e0565b500290565b6000828210156109db576109db6109e0565b500390565b634e487b7160e01b600052601160045260246000fdfea2646970667358221220461a333c449be92a960365b4a61f487ebe9bba8aae2f6ff59325344d857d3d3464736f6c63430008040033",
  "devdoc": {
    "kind": "dev",
    "methods": {},
    "version": 1
  },
  "userdoc": {
    "kind": "user",
    "methods": {},
    "version": 1
  },
  "storageLayout": {
    "storage": [
      {
        "astId": 18,
        "contract": "contracts/Staker.sol:Staker",
        "label": "exampleExternalContract",
        "offset": 0,
        "slot": "0",
        "type": "t_contract(ExampleExternalContract)12"
      },
      {
        "astId": 22,
        "contract": "contracts/Staker.sol:Staker",
        "label": "balances",
        "offset": 0,
        "slot": "1",
        "type": "t_mapping(t_address,t_uint256)"
      },
      {
        "astId": 26,
        "contract": "contracts/Staker.sol:Staker",
        "label": "depositTimestamps",
        "offset": 0,
        "slot": "2",
        "type": "t_mapping(t_address,t_uint256)"
      },
      {
        "astId": 35,
        "contract": "contracts/Staker.sol:Staker",
        "label": "withdrawalDeadline",
        "offset": 0,
        "slot": "3",
        "type": "t_uint256"
      },
      {
        "astId": 41,
        "contract": "contracts/Staker.sol:Staker",
        "label": "claimDeadline",
        "offset": 0,
        "slot": "4",
        "type": "t_uint256"
      },
      {
        "astId": 44,
        "contract": "contracts/Staker.sol:Staker",
        "label": "currentBlock",
        "offset": 0,
        "slot": "5",
        "type": "t_uint256"
      }
    ],
    "types": {
      "t_address": {
        "encoding": "inplace",
        "label": "address",
        "numberOfBytes": "20"
      },
      "t_contract(ExampleExternalContract)12": {
        "encoding": "inplace",
        "label": "contract ExampleExternalContract",
        "numberOfBytes": "20"
      },
      "t_mapping(t_address,t_uint256)": {
        "encoding": "mapping",
        "key": "t_address",
        "label": "mapping(address => uint256)",
        "numberOfBytes": "32",
        "value": "t_uint256"
      },
      "t_uint256": {
        "encoding": "inplace",
        "label": "uint256",
        "numberOfBytes": "32"
      }
    }
  }
}